:10289C00D3EF9400EE940040117DDCEF1F70011E0D
:0B28AC00EDD3940040EA001D80F622EE
:10273C008B258A268927E4FFEFC3952B501FAB28E6
:10274C00AA29A92A8F82758300122260AB25AA269A
:0E275C00A9278F8275830012228D0F80DB2249
:102918001215E5D28C1228D11222C712174112259E
:03292800CF80F568
:030023000219A916
:1019A900C0E0C0F0C083C082C0D075D018209803B1
:1019B900021A3E900082E0FCB4FF05D2A3021A9DF0
:1019C900C298EC75F01EA42400F582E43400FEAF41
:1019D90082900084E0FC2FF582E43EF583E599F0DE
:1019E9008F828E83E5822CF582E43583F583E0F4DA
:1019F9006010900084E02401FBE433FAEB641E4A92
:101A0900702E900084E4F0900082E0FD04F0E0B4D0
:101A19000202E4F0900083E0FC900082E0B51C052E
:101A290074FFF0D2A3900083E0F47068EDF0806455
:101A3900900084805C30995CC299900080E0FCF44D
:101A49006052EC75F021A4243CF582E43400AF82A5
:101A5900FE900081E02FF582E43EF583E0F599F4EC
:101A6900702C900080E0FDA3E4F090007FE0B4FFCB
:101A790002EDF0900080E004F0E0B40202E4F0909E
:101A8900007FE0FCA3E0B51C0B74FFF0800690001A
:101A990081E004F0D2ACD0D0D082D083D0F0D0E0B5
:011AA900320A
:03000B000221F9D6
:1021F900C0E0C083C082C0D0758C4C758A000508C8
:10220900900234E06006900236E004F0E508C394D9
:1022190002403BD2007508000509E509940640050E
:10222900D201750900050AE50AC3940A4005D201DD
:10223900750A00050BE50BC394144012D203750B04
:1022490000050CE50C94054005D204750C00D0D0AE
:07225900D082D083D0E032F7
:101C2800C208900234E0FF702620A10204F020A22E
:101C3800069002347402F020A0069002347403F077
:101C4800900234E07003021CD1E4900236F022EFD7
:101C580064037028A2A04003D38001C3405B9002B4
:101C680036E0FF94024011EFC394199000865005A6
:101C78007402F080037401F0D208803D900234E0D1
:101C8800FF6401701CA2A14003D38001C3402A90C5
:101C98000236E0940240069000867403F0D2088071
:101CA80018EFB4021420A211900236E0C394024047
:101CB800069000867404F0D20830080DE4900236CD
:0A1CC800F0900234F0900087F02243
:101B7D00E4F524F525900085E06403704C90008910
:101B8D00E0FFB4060875240275251A800AEFB40526
:101B9D0006752402752527E5254524602C852582AB
:101BAD00852483E0FF75F00384F522C3940240057C
:101BBD007522018003E4F522EF75F00684E5F0044B
:101BCD00F523D3940340020523300533900089E0BB
:101BDD00FF75F032A4248AF582E5F03400F583E038
:101BED00FD122097E5254524602E852582852483C9
:101BFD00E0A32582F582E43583F583E0FB80129026
:101C0D000089E0FF7D03122097E525452460097BBF
:0B1C1D0020AD23AF2212276AB205227F
:1022C700300005C200121C2830010CC201900085A5
:1022D700E0B40303121B7D300102C20130031CC2AC
:1022E70003900087E0D394004011E014F0E0D3940A
:1022F700005008E4F09000867405F0300426C2040C
:10230700900085E0B401031228D1900088E0D394AF
:10231700004011E014F0E0D394005008E4F090007E
:05232700867407F0229E
:101D7B0012282640FB7FE212280512282640FB7F03
:101D8B00A01228057FC81228057FA21228057F2CD8
:101D9B00121DFA12289C7F2E121E027F2F121E027A
:101DAB007F241228057F811228057F2F1228057F9B
:101DBB00F8122805E4FF1228057FA61228057B08D8
:101DCB00E4FD7FFF1226977FAF121DFA12289C7B32
:101DDB0008E4FDFF1226977FAF1228057FE87E03EC
:101DEB0012289C7F401228057F647E0002289C12DB
:101DFB0028057F647E00221228057F0A7E001228A8
:021E0B009C2217
:1015E500C2AC75985075C83475CBFF75CAFAC2B3CD
:1015F500758911C28CC28E758C4CE4F58AC2ABD24A
:10160500B3121D7BD2AFD2ACD2A9D2AFD2BCC2A38A
:10161500E490007EF0900082F0A374FFF0E4A3F064
:1016250090007FF0A374FFF0E4A3F0F508F509F549
:101635000AF50BF50CC200C201C201C203C2049037
:101645000085F0A3F09001E8F09000897407F0E4BC
:10165500F522E52275F032A4248CF9740035F0FAF0
:101665007B01C001E52275F030A424A6F97402358A
:10167500F07528FFF529892A752B30D00112273CF2
:1016850075F032E522A4248AF582E5F03400F5836D
:101695007402F00522E522C3940840B6E490021ACC
:1016A500F0900227F0F522741B2522F582E434021E
:1016B500F5837430F074282522F582E43402F5832D
:1016C5007431F00522E522B40CDDE4900235F0908A
:1016D5000234F0900237F090023B74FFF0A37404DB
:1016E500F0A37483F0900089E075F032A424A7F983
:1016F500740035F0FA9002387401F0A3EAF0A3E91A
:10170500F0E490023FF090023E04F09000887406E9
:10171500F0D2057F327E0012289C7B08E4FDFF1283
:101725002697900089E0FF1229021221877FE87E23
:0C1735000312289C7B08E4FDFF022697AD
:102826007590FFC2B4C2B2D2B5C2B6D2B6C2B6AF06
:102836009000D2B2D2B4D2B6D2B5EF549024FF22D1
:1027E400C2B200D2B400D2B600C2B5008F900000CD
:1027F400D2B200D2B400D2B600D2B512282640FB21
:0128040022B1
:10280500C2B200C2B400D2B600C2B5008F900000BB
:10281500D2B200D2B400D2B600D2B512282640FBFF
:012825002290
:10269700AE07E4FCFAECC39B5031ED33333354F807
:1026A7002440FF122805ED24B02CFF1228057F10C7
:1026B700122805E4FF122805E4FA12282640FBAF8A
:0C26C700061227E40ABA84F20C80CA2232
:10140500000000000000005F000000070007001456
:101415007F147F14242E7B2A122313086462364915
:101425005620500004030100001C22410000412207
:101435001C0022147F142208087F08084030100081
:101445000008080808080060600000201008040271
:101455003E5149453E00427F40006251494946217F
:1014650041494D331814127F1027454545393C4AEB
:101475004949310171090503364949493646494902
:10148500291E003636000040363600000814224179
:101495000014141414140041221408020159050201
:1014A5003E415D555E7C1211127C7F494949363EAD
:1014B500414141227F4141413E7F494949417F099F
:1014C5000909013E415151727F0808087F00417F9B
:1014D50041002040413F017F081422417F404040A8
:1014E500407F020C027F7F0408107F3E4141413E50
:1014F5007F090909063E4151215E7F0919294626C2
:101505004949493201017F01013F4040403F1F20C9
:1015150040201F7F2018207F63140814630304787C
:10152500040361514945437F7F414100020408108E
:10153500200041417F7F04027F0204081C2A08081D
:10154500000001020424545438407F2844443838AC
:1015550044444408384444287F3854545408087E89
:1015650009090298A4A4A4787F08040478000079E6
:10157500000000808879007F1028444000417F40AA
:1015850000780478047804780404783844444438AE
:10159500FC2424241818242424FC04780404084872
:1015A50054545424043F4444243C40403C401C20B3
:1015B50040201C3C403C403C44281028449CA0A0B2
:1015C500907C4464544C4408364100000000770088
:1015D5000000004136080804081008552A552A5508
:102111008F288D298B2A8A2B892CE4F52DAB2AAAAD
:102121002BA92C852D82758300122260FF6056E554
:1021310029C39415504F8F2E74E0252EF52EC3948C
:10214100004007E52ED3945E4003E4F52EE52975A2
:10215100F005A4FDACF075F005E52EA42405F5828B
:10216100E5F03414AF82F5378F38E5282406FFE413
:1021710033FE7535007536057B017A00121AAA0502
:062181002D0529809822C3
:100B1D0000000000000000000000000000000000C8
:100B2D000000000000000000000000000038F8F890
:100B3D0038000000000000000030333330000000AA
:100B4D00000010180C0E161A0C0E06020000000004
:100B5D000000000000000000004040F8F840404058
:100B6D0040F8F84000043F3F050404043F3F0504EE
:100B7D0000007070F8D8FCFC3838300000001838D0
:100B8D003820FFFF3F3E1C00F0F80808F8F080E029
:100B9D0078180800000121391D0F1F3F21213F1E2C
:100BAD000000F0F888F8F870000000001C1E3F23CC
:100BBD00272E3C3D2F2331100000121E0E06000083
:100BCD000000000000000000000000000000000018
:100BDD000000000000C0F0F81C0C06020000000030
:100BED0000030F1F383060400002060C1CF8F0C0E7
:100BFD000000000000406030381F0F0300000000AF
:100C0D0000404040C080F0F080C040400002020231
:100C1D0003010F0F01030202000000000000F0F0BD
:100C2D00000000000001010101011F1F0101010170
:100C3D00000000000000000000000000000090F027
:100C4D0070300000000000000000000000000000F7
:100C5D00000000000001010101010101010101017C
:100C6D000000000000000000000000000000303017
:100C7D00303000000000000000000000000080C0C7
:100C8D0070380C04004060381C07030100000000A0
:100C9D0000C0F0F03818080838F0F0C000071F1F2A
:100CAD0038302020381F1F070000101010F0F8F802
:100CBD000000000000002020203F3F3F20202000AA
:100CCD000070705808080818F8F0700000203038CF
:100CDD002C24262321383800003038388888D8F85D
:100CED007830000000183838202020313F1F0E00CA
:100CFD0000000080C06030F8F8F80000000607051D
:100D0D000424243F3F3F24240000F8F88888888875
:100D1D008808080000181939212020313F1F0F00C5
:100D2D0000C0E0F0B898888898981000000F1F1F39
:100D3D0031202020313F1F0E000030381808088860
:100D4D00E87818080000000000383E3F0100000060
:100D5D000070F0F89888880898F87070000C1E3FA5
:100D6D0031212121333F1E0C00E0F0F8180808084E
:100D7D0018F0F0E000011133332222323B1F0F0730
:100D8D000000000000C0C0C0C00000000000000056
:100D9D000030303030000000000000000080808006
:100DAD00000000000000000000A0E0600000000056
:100DBD000000000080C040603010180800000101E4
:100DCD0003060C08183020200040404040404040B1
:100DDD0040404040000404040404040404040404DA
:100DED000000081810306040C08000000000202076
:100DFD003018080C06030101006070580808080837
:100E0D0098F8F07000000000303637310100000016
:100E1D0000C0E0F0B8D86828E8F878F000070F1F98
:100E2D003F3724262727361B00000080F07878F8FE
:100E3D00E080000020303E3F230202232F3F3C3054
:100E4D0008F8F8F8888888C8F8783000203F3F3FC8
:100E5D0020202020313F1F0E00C0E0F03818080878
:100E6D000818383800071F1F383020202030180888
:100E7D0008F8F8F80808081838F0E0C0203F3F3FA0
:100E8D0020202030381F0F0708F8F8F8888888E8E8
:100E9D00E8081810203F3F3F20202023233038083A
:100EAD0008F8F8F8888888E8E8081810203F3F3FD0
:100EBD00200000030300000000C0E0F0381808080F
:100ECD001838380000070F1F382022223E1E1E0240
:100EDD0008F8F8F80800000008F8F8F8203F3F3F40
:100EED0021010101213F3F3F0000080808F8F8F8F3
:100EFD000808080000002020203F3F3F2020200050
:100F0D0000000000080808F8F8F808080040C0C004
:100F1D00808080FF7F7F000008F8F8F88880C06827
:100F2D0038180808203F3F3F210103072E3C302091
:100F3D0008F8F8F80800000000000000203F3F3FCF
:100F4D00202020202030381808F8F8F8F8C000C00C
:100F5D00F8F8F8F8203F3F210F3F3E0F213F3F3F6C
:100F6D0008F8F83870E0C0800008F8F8203F3F20FE
:100F7D00000103070E1C3F3F00C0F0F038080808C1
:100F8D0038F0F0C000071F1F38202020381F1F0722
:100F9D0008F8F8F80808080898F8F060203F3F3F77
:100FAD00210101010101000000C0F0F0380808081E
:100FBD0018F0F0C000071F1F3C242C3C787F6F27D2
:100FCD0008F8F8F888888888D8F87070203F3F3F77
:100FDD00200001070F1C38200060F0F89888880861
:100FED00081838380038383020212121333F1E0CA5
:100FFD001018080808F8F8F808080818000000008C
:10100D00203F3F3F2000000008F8F8F808000000DE
:10101D000008F8F8001F1F3F3020202020301F1F30
:10102D00080878F8F888000088F8780800000003B0
:10103D001F3F3C3C1F0300000878F8F888F8F8F8CB
:10104D0088E8F81800000F3F3F0F0F3F3F0F0100DA
:10105D0000081838F8C880C87838080800202038EB
:10106D003C27072F3C38302008183878F8E8808066
:10107D00C878380800000020213F3F3F21200000A4
:10108D0000101818080888C868381808002030386B
:10109D002C272320203038080000000000FEFE021F
:1010AD000202020200000000007F7F4040404040ED
:1010BD0000000C1C78E08000000000000000000023
:1010CD000001030F3C70E08000000202020202FEEC
:1010DD00FE000000000040404040407F7F000000C7
:1010ED0000000004040602020604040000000000D3
:1010FD0000000000000000000000000000000000E3
:10110D0000000000808080808080808080808080D2
:10111D0000000002020604040000000000000000B0
:10112D000000000000000000000000808080808032
:10113D008080000000183D3D272622223F3F3F20A2
:10114D000008F8FCFC8080808080800000003F3F1C
:10115D003F312020313F1F0F0000008080808080B4
:10116D0080000000000E1F3F312020212131100092
:10117D000000008080808088F8FCFC00000E1F3F7E
:10118D00312020303F3F3F200000000080808080D4
:10119D008080000000000E1F3F32222222233313D5
:1011AD0000808080F0F0F88888989810000020204A
:1011BD003F3F3F2020200000000000808080808085
:1011CD00808080800060EBFF9F94949497F7F3608C
:1011DD000008F8FCFC8080808080000000203F3FEC
:1011ED003F2100203F3F3F2000008080809898984D
:1011FD000000000000002020203F3F3F2020200065
:10120D000000000080808098989800000000C0C009
:10121D00C08080FF7F7F00000008F8FCFC0080800C
:10122D008080800000203F3F3F26062F3930202050
:10123D000000080808F8F8F8000000000000202061
:10124D00203F3F3F20202000808080808080808054
:10125D0080808080203F3F3F203F3F3F203F3F3FEA
:10126D0000808080808080808080000000203F3F53
:10127D003F2100203F3F3F20000000808080808084
:10128D0080800000000E1F3F31202020313F1F0EB7
:10129D000080808080808080808000000080FFFF43
:1012AD00FFB1A020313F1F0F0000008080808080A3
:1012BD0000808000000E1F3F3120A0B1FFFFFF8096
:1012CD008080808080800080808080802020203FF2
:1012DD003F3F23212001010100000080808080809C
:1012ED008080808000003333272624242C3C39193C
:1012FD0000808080C0E0E080808000000000000061
:10130D001F3F3F2020301000008080808000008033
:10131D008080800000001F3F3F2020303F3F3F2056
:10132D0000808080808080008080808000000003AD
:10133D000F1F3E381C0F03008080808080808080CE
:10134D008080808000031F3F3E1E071F3F3C1F0310
:10135D00008080808080808080808080002020318F
:10136D003B3F0E2E3B31202000808080808080808E
:10137D0080808080000081838FFF7C3C0F03000004
:10138D00000080808080808080808000000021317E
:10139D00382C26222331381800000000008080FCF4
:1013AD007E020200000000000000003F7F40400070
:1013BD00000000000000FFFF000000000000000022
:1013CD000000FFFF00000000000002027EFC808094
:1013DD0000000000000040407F3F000000000000C2
:1013ED0000040703010303060604060700000000BE
:0813FD000000000000000000E8
:1027090075F00CA4FDE52EACF075F018A4241DF5A8
:1027190082E5F0340BAF82F5378F382275F002A4C9
:102729002402FBE435F0FA2275350075360CAF0347
:03273900AE0222CB
:10276A008D2BA90374E029F9C394004006E9D39498
:10277A005E4002E4F9EF122725E52B75F00CA4FD63
:0E278A00E91227101227317B027A00021AAAE8
:101F1D008F288D298B2A8A2B892CE4F52DAB2AAAA3
:101F2D002BA92C852D82758300122260FF6062E53E
:101F3D0029C39412505B8F2E74E0252EF52EC39479
:101F4D00004007E52ED3945E4003E4F52EE529C34A
:101F5D0094094022E52975F00984E5F0122709E579
:101F6D002825E0FFE433FEEF2404FFE43EFE753543
:101F7D000075360C800DE528122725E52912270955
:101F8D001227317B027A00121AAA052D0529021F8C
:021F9D002A22F6
:10189900000000406070F8FCFEFCF8706040000039
:1018A9000000000000007F7F7F7F7F0000000000B4
:1018B900000000406050C8040204C85060400000A5
:1018C9000000000000007F4040407F000000000051
:1018D90000E21408142242824222140814E2000091
:1018E90000231408142221202122140814230000A3
:1018F90000000000000000000000000000000000DF
:1019090000000000000000000000000000000000CE
:1019190000E0202020202020203C081020408000CA
:101929000007040404040404043C10080402010030
:1019390000E0E0E0E0E0E0E0E0FCF8F0E0C080009A
:101949000007070707070707073F1F0F07030100DE
:1019590000E21408142242824222140814E2000010
:101969000023140814222120212214081423000022
:10197900000000000000000000000000000000005E
:10198900000000000000000000000000000000004E
:1019990018B9189918D918F9191919391959197932
:1028EA00F583E493FE7401938E37F538227535002B
:0828FA007536107B027A002202
:102097008F298D2AE52AC394004007E52AD39403A4
:1020A7004003E4F52AE529C394045035E5292401C2
:1020B700FFE433FE7C007D091222AFAC06AD07E5D5
:1020C7002975F010A42DFDEC35F0FCE52A25E02458
:1020D70099F582E434191228EA1228F7E4FFFE8002
:1020E70025E52A25E024A1F582E434191228EAE53A
:1020F7002924FCFFE434FFFEEF25E0FFEE33FE1258
:0A21070028F77D707C00121AAA224E
:1027C000E4F52875F032E528A4248AF582E5F03492
:1027D00000F583E0FDAF281220970528E528C39473
:0427E0000840E022AB
:10288000FFE433FEE52A2FF582E5293EF583E0FBE0
:0C28900022E0FBA3E0FAA3E0F9E4FD2243
:101AAA008E2F8F308C318D328A338B34E4F539F5B1
:101ABA003AE5322536FFE5313535FEC3EF9484EE3B
:101ACA00648094804003021B7CE5302534FFE52FB7
:101ADA003533FED3EF9408EE648094804003021BF2
:101AEA007CE4F539C3E5399534E5336480F87480CC
:101AFA0098507AE530AE2F7803C333CE33CED8F977
:101B0A002480FF122805E53024B02539FF12280564
:101B1A00E532AE317804CEA2E713CE13D8F84410DA
:101B2A00FF122805E532540FFF122805E4F53AC3DF
:101B3A00E53A9536E5356480F8748098502AAF39CD
:101B4A007E00AC35AD361222AFE5382FF582E53787
:101B5A003EF583E582253AF582E43583F583E493FD
:101B6A00FF1227E4053A80C70539021AEE7F801270
:031B7A0028052219
:1028B7008E288F29E4F52AAF297B20AD2A12276AB3
:0A28C700052AE52AC3940940EE2219
:10201C00BF0508752902752A278006752902752ABD
:10202C001AE4F528E52804FD852A82852983A3E591
:10203C00822528F582E43583F583E0FBE4FF12204A
:10204C008C2404122880E4FF12276AE52804FDE59D
:10205C002824071228807F0112208C240A12288041
:10206C007F0112276A0528E528C3940340B67B2E0E
:10207C007D04E4FF12276A7B2E7D047F0102276A10
:0B208C0012276AE5282405FDE5282244
:101E0D00E4FFFE1228B77F017E001228B77F027E05
:101E1D00001228B7900089E0B4060A900085E060B2
:101E2D00047F06800F900089E0B4050D900085E0D9
:101E3D0060077F0512201C803A900089E0B4071BD3
:101E4D00900085E0B403149001E8E075F00AA47BDE
:101E5D00FF2465F9740435F0FA8012900089E0755D
:101E6D00F032A4248CF9740035F0FA7B01E4FDFF07
:101E7D00121F1D900238122891FF12211190023B62
:081E8D001228917F01022111CE
:1028D1007B08E4FDFF122697900085E0B401030216
:0928E10021871227C0121E0D22EE
:1000260000000000000000000000000000000000CA
:1000360000000000000000000000000000000000BA
:100046000000000000000000000000000080C0E08A
:10005600F0F8F8F8F8F0600000000000000000007A
:10006600000000000000000000000000000000008A
:10007600000000000000000000000000000000007A
:10008600000000000000000000000000000000006A
:10009600000000000000000000000000000000005A
:1000A600000000000000000000000000000000004A
:1000B600000000000000000000000000000000003A
:1000C600000000000080C0E0F0F8FCFEFFFF7F3F6C
:1000D6009F8F8783010000000000000000000000E1
:1000E600000000000000000000000000000000000A
:1000F60000000000000000000000000000000000FA
:1001060000000000000000000000000000000000E9
:1001160000000000000000000000000000000000D9
:1001260000000000000000000000000000000000C9
:100136000000000000000000000000000080C0E099
:10014600F0F8FCFEFFFF7F3F1F0F070301000000D2
:10015600077FFFFFFC800000000000000000000099
:10016600000080C0C0C0800000000000000080C009
:10017600C0C080000000000000000080C0C08000F9
:10018600000000000080C0C0C08000000000000029
:1001960000808080808080808080808000000000D9
:1001A60000000000E0F0F0F8F8F8F8F8F8F8F8F8D1
:1001B600F8F8F8F8F8F8F8F8F8F8FCFEFFFFFFFF93
:1001C600FFFFFFFBF9F8F8F8F0E0C0000000C0E020
:1001D600F0F8FFFFFFFFF8F8F8F0E0C00000000CB1
:1001E6000E1F3F7F7FFBF3E0E0C0800C0E1F3F7FBA
:1001F6007FFBF3E0E0C08000000000F1FBFBF100B4
:1002060000000C0E1F3F7F7FFBF3E0E0C080000084
:100216000307070707F7F7F7F707070703000000C5
:1002260000000000010307070F0F0F0F0F0F0F6FDE
:10023600FFFFFFFFFFFF7F3F1F0F0F0F0F0F0F0F78
:100246000F0F0F0F0F0F070707030100000001072D
:10025600070F0F1F1FFFFFFFFF0F07010000001C06
:100266003C3E1E1E0F0F0F070703031C3C3E1E1EBF
:100276000F0F0F07070303000000003F3F3F3F003B
:100286000000001C3C3E1E1F0F0F07070303000063
:1002960000000000007F7F7F7F000000000000005C
:1002A6002020205765622020202020536572766525
:1002B600722000000000000000000057575720730E
:1002C60065727669636520666F722041646D696E3A
:1002D60020202046696C65202020205365727665B3
:1002E600720000000000000000000046696C6526F0
:1002F6005265736F75726365205368617265640039
:100306002020204D61696C2020202053657276657F
:100316007200000000000000000000534D54502FF2
:10032600504F50332F494D415053657276657200D8
:10033600205072696E746572205375627379737496
:10034600656D0000000000000000005072696E74C8
:1003560065722053686172656420696E204C414E57
:10036600202043616D6572612053756273797374E1
:10037600656D00000000000000000043616D6572BD
:10038600612652656D6F7465204D6F6E69746F726C
:1003960020204C414E204950000000000000000083
:1003A60000000000000000000000004950204164E9
:1003B600647265737320666F72204C414E000000B4
:1003C600202057414E204950000000000000000048
:1003D60000000000000000000000004950204164B9
:1003E600647265737320666F722057414E00000079
:1003F6002050726F746F636F6C0000000000000085
:10040600000000000000000000000050726F746FD2
:10041600636F6C206F662057414E20506F727400D8
:100426002020202020202853746F707065642900D6
:1004360000000000002020202020202852756E6E2B
:10044600696E67290000000000002020202020207F
:1004560028556E6B6E6F776E290000000000002035
:10046600205050504F452020002020204448435023
:10047600202000205374617469632020002041739A
:10048600736973742E402E323030372D30352D324D
:1004960031004153363030207265626F6F74696E79
:1004A600672E2E2E2E2E0057616974696E67207294
:1004B6006573706F6E73652E2E2E2E2E0057414E6D
:1004C600206973206E6F742073746174696300D63B
:1004D600E9D4D2E4EAD0EAD0EAC0AAC0AA80AA0047
:1004E6005284208A2084200A400824002400240004
:1004F6008024000010000000100000000000000032
:1005060000000000000000204000A048A048A074A1
:10051600A85AB45AAD5E2F5D1E1D0E050B050601C9
:1005260000000100000000000000000000000000C4
:100536000000009F472F872F570FAF5F0F5F1FBF2A
:100546001FBE3FBF7DBE7FBC7EFA7CF5FCF5F8651D
:10055600D8A148508420821000000100000000004D
:100566000000000000000000000002000209040272
:100576000902050082011042002882A0C8A4E1E811
:10058600F4E0F8F4F8F0F8F8FCF8F0F8F0F8F0E039
:10059600F0C0C0C08000005495204A90ED90EAF566
:1005A600E8F5E8F2E8F2F8F2E8E2F8E2E8E2D5E0A7
:1005B600CA82A9832A05AB154AAA50AA01A8000037
:1005C6000000000000000000000000000000000025
:1005D6000000000000000088042188EAF9FFFE1FE1
:1005E6005F0F2783012B7FFFFFFFFFFFEFF7C3EBB3
:1005F600E777E133AB5F4F57060E2DB52A5DAB7E2D
:10060600FEFFFFFFFFFFFFCF87EB15411FFFFFFF39
:10061600FFFFFFF7FFE7FFFFFFDFCCFEF9D2550A2A
:1006260055AA9045104000000000000000000000A0
:100636000000000000000000000000002208BF1FAC
:100646004F1F4E154E150E240E460A1607070307B2
:100656000303010100010000000000000000005437
:1006660005510429420A5205AB1583570B274B1730
:100676004716470BA7034B05A304218209A00904CB
:100686005105A94510A608A21500000000000000AB
:100696000000000000000000000000000000000054
:1006A6000000000000000000000000000000000044
:1006B6000000000000000000000000000000000034
:1006C6000000001D24110421140108120008220054
:1006D6001500051005001104001200021001041097
:1006E6000208011005201205100A200A1001000058
:1006F60000000000000000000000000000000000F4
:1007060000000000000000000000000000000000E3
:1007160000000000000000000000000000000000D3
:1007260000000000000000000000000000000000C3
:1007360000000000000000000000000000000000B3
:1007460000000000000000000000000000303460DF
:10075600B474F4F4F4F4ECD468D0000000000000A3
:100766000000000000000000000000004040404083
:100776004040406060A0B0B0D0D0D0D0D0D0D8E853
:10078600D8B0A0B0A0A0A0B0B0A0E0A080000000AB
:100796000000000000000000000000000000000053
:1007A60000000000000000000000000000000080C3
:1007B6008080C0C040404040404040804040404073
:1007C60040404040404040406060A0B0A0A1D6EF0D
:1007D600F6FFFF7FBF6FB55F00000000000000005E
:1007E6000000000000000000000DD77DCFFFFFFFD6
:1007F600FFFFFFFFFFFDF6F7F7FFFFDFF3FBDFCF9E
:10080600CFCFD7D7EFEFDFF737D6030600000000CC
:1008160000000000000000000000000000000000D2
:100826000000000000C070D4EAF4FB7BBDDD5D5E15
:100836006E6E2F2F27373737373627373737373705
:10084600373737373717171717171B1B0B0D0D06BB
:100856000601020100000000000000000000000088
:100866000000000000000001FFD7FFFFFFFFFFFFB1
:10087600FFFFFFFFFFFFFFFFFFFFFFFFFFB77BDB72
:100886004B1B1B171B031603000000000000000093
:100896000000000000000000000000000000000052
:1008A6000000000F58AF5FBFBF7F7BFBFAF6F4F482
:1008B6006CECECECECECECECF4F4F4F4F4ECF4F4BA
:1008C600F4F4F4ECECECECF4F4F4F4F4F4F4F4F402
:1008D600F6F4F4F4F4F4F4F4ECECECE8E8E8D8E834
:1008E600D8D0D8D8C8E8E8EBEEFFDEFFFFFFFFFF61
:1008F600FFFFFFFFFFFFFFFFFFFFFFFFFFFFF7EE1B
:10090600E8D468D0000000000000000000000000ED
:1009160000000000000000000000000000000000D1
:1009260000000080818181010302020202020102AD
:1009360082C2B6DAFEF6FAFCFEFEFFFFFFFFFFFFFD
:10094600FFFFFF7FFFFFFFFFFFFFFFFFFFAFFFFF81
:10095600FFFFFFFFFFFFFFFFFFFFFFFFFFFFFFFFA1
:10096600FFFFFFDF7EEFFFFFFFFFDFBFFFEFFFBFF2
:10097600FEBDDBFFFFFFFFFFFFFFFFFFFFFFFFFFE8
:10098600FE5B7EC0C080000000000000000000008A
:100996000000000000000080000000000000D0F40D
:1009A600DEEEFEFEFEFAF6B4F4F4ECE8ECECEFF65E
:1009B600FFFFFFFFFFFFFFFF7FFFBFDFFFFFFFFF21
:1009C600FEFFFFBFFFFFFFFFFFFFFEFEFFFF7FBF34
:1009D6005FFF6F6F6F5F5F5F5F5F5F5F2FBFBFBF61
:1009E600BFBF7F7E7F6F6E7F7FFFFFFFFFFFFFFF33
:1009F600FFBFBFBFDF5F6F777FBFBFBFBF7F7F7F99
:100A06007F7E7F7DFDFBFBFAFAFAFAFAFAFAFAFB29
:100A1600FAFBFDFDFDFDFDBD7DDD7D3A0EFBDD7FB7
:100A26007FFFFFFBFBFDEEEDEBDBE5F71717373737
:100A36003737371717171717171B1B0B0B050D0B18
:100A46001B2B57376FDFBF7F7FFFFEFC797D7B7ADD
:100A56007AB6B678B400000000000000000000017D
:100A66000101010101050FFDAF7FFFFFFFFFFFEB56
:100A7600EFE8E8E9E9D1A1D1810101010101030310
:100A8600030302020202020202020202020202023E
:100A96000202020202030100010000010003010636
:100AA6000605060505050502050000000000000014
:100AB6000000000000000000000000000000000030
:100AC6000000000100030302020203030101010109
:100AD6000000000000000000000000000000000010
:100AE60000000000000005030F0B0B1B1B17171758
:100AF6001B1B1B0D05030500000000000000000085
:100B060000000000000000000000000000000000DF
:070B160000000000000000D8
:08000300900237E05403FF22D4
:102187007B08E4FDFF122697900237E004F0E05445
:10219700037010F5357536807537007538267B0561
:1021A700FA8037120003BF011A753500753664755A
:1021B70037047538D57B067A007D0A7C007F017E5F
:1021C70000801C120003BF021975350075367E7535
:1021D700370775382D7B077A00E4FDFC7F01FE0287
:1021E7001AAA120003BF03097B08E4FD7FFF12262A
:0221F70097222D
:1025320003284604286305296906294503295B0403
:10254200295B01295B02295B0529690126580328B9
:102552004604286306296305296907000E012581BF
:102562000224E203244204249205295007000E00AB
:0F2572000425320105253E0206254D0306255F8F
:0E292B00E52225E025E02471F582E434252222
:10232C008E238F248F828E83740293FE7403938E7C
:10233C0026F527E4F525852482852383740193FFF4
:10234C00E525C39F5033852782852683E493FF9030
:10235C000086E0B50714E4F0852782852683049374
:10236C00FE740293AA06F90222C174032527F527ED
:10237C00E43526F526052580BDE4900086F07F0423
:01238C00222E
:1025CF007F04900086E0603FE4F52212292BF5830B
:1025DF00E493FE900085E0FDEEB5050B12292BAFBD
:1025EF0082FE12232C80090522E522C3940440DBCE
:1025FF00EF6404600F900085E06F6008EFF09000CB
:08260F00877478F01228D12233
:10238D00900089E075F032A4248AF582E5F03400DE
:10239D00F583228F828E83E0A32582F582E4358337
:1023AD00F58322A424A7F9740035F0FA7401900284
:1023BD0038F0A3EAF0A3E9F0229000877478F022B8
:1023CD00E4FFFE900089E0FD64062290023874FF60
:0F23DD00F0A322121F9F90008774B4F07F042298
:101F9F0090023EE070047F0180027F0090023EEFCE
:101FAF00F0900089E075F032BF01111223B0A374D5
:101FBF00FFF0A37404F0A37483F08021122394E044
:101FCF0075F016A42426F9740435F0FA74FF122361
:101FDF00BBA37401F0A37402F0A3743FF0900089C7
:101FEF00E0FF122391E064026018EF640660139023
:101FFF000089E06405600BEF64076006900085E0E0
:0D200F00700A900089E075F0321223B022B3
:101CD2008D288F828E83E075F00384ADF0ED700461
:101CE2007902804FBD01148F828E83E01223A6E019
:101CF200B432047905803C790980388F828E83E082
:101D0200FD75F00384E5F064027028ED24FFFDE424
:101D120034FFFCE5822DF582E5833CF583E0B432A5
:101D2200108F828E83E01223A6E0B43504790580F9
:101D32000279098F828E83E0FD1223A5E02528F027
:101D42008F828E83A3E5822D1223A8E0C3943050A4
:101D520009E92430FD1223A0EDF01223A0E0FDE9F1
:101D62002430FBE433FAD3ED9BEA6480F874809864
:091D720040061223A07430F02297
:0B294500121F9F7F081229027F022250
:08295B007F081229027F02220D
:10265800900089E0FF64056005EF6406702BEFB415
:102668000507E4900227F0801A9001E8E064026010
:102678000D1223D87404F0A374C3F07F0422E490ED
:0F268800021AF012238D7401F01223C67F032271
:10284600900089E0B40704E4F08006900089E00473
:0D285600F0900089E0FF1229021223E02219
:10286300900089E070057407F08006900089E014F9
:0D287300F0900089E0FF1229021223E022FC
:06296300121F9F7F0422F9
:062969001223C67F0122CB
:0B295000900089E0FF1229027F0222A4
:102442001223CD6005ED64057028EDB405067E0209
:102452007F27800B900089E0B406047E027F1AEF8A
:102462004E700812238DE4F07F02227D01121CD2ED
:102472008018900089E0B407149001E8E0B40204E7
:10248200E4F080069001E8E004F01223C67F042203
:102492001223CD6005ED64057028EDB405067E02B9
:1024A2007F27800B900089E0B406047E027F1AEF3A
:1024B2004E700812238DE4F07F02227DFF121CD29F
:1024C2008018900089E0B407149001E8E070057468
:1024D20002F080069001E8E014F01223C67F042285
:1024E2001223CD6005ED64057036EDB405067E025B
:1024F2007F27800B900089E0B406047E027F1AEFEA
:102502004E700812238DE4F07F02228F828E83E0C8
:10251200B40B04E4F080138F828E83E004F0800A0F
:10252200900089E0B407061224421223C67F0422D7
:10258100900089E0FF64066004EFB405051223ECB6
:102591008008900089E0FF122798900089E0FF12DF
:1025A1002391E4F0EF64056009EF64066004EFB481
:1025B100070C1223D87404F0A37498F0800A122334
:0E25C100D87404F0A374ADF01223C67F02227A
:10000E009000887406F07F08122902121F9F122892
:04001E00D17F042268
:10261700900083E0FF75F01EA42401F582E43400E6
:10262700F583E022EF75F01EA42406F9740035F057
:10263700752801F529892A2275F01EA42400F58240
:10264700E43400F58322900083E075F01EA424068D
:012657002260
:10174100E4F522900083E0FFF47003021898EF1291
:10175100263FE064AA600302186EF52212264DF5B9
:1017610082E43400F583E5822522F582E43583F5B0
:1017710083E0F460070522E522B418E0900083E0DD
:1017810012261CFFC394005003021842EF94084034
:101791000302184212261775F032A4248AF582E555
:1017A100F03400AD82F5238D24EF75F01EA42404DE
:1017B100F582E43400F583E08D82852383A3F090E4
:1017C1000083E0FF75F01EA42402F582E43400F5E5
:1017D10083E08D82852383F0EF12261CB4051290DD
:1017E1000083E012262C85222B7B017A0279288046
:1017F1003A122617B4060E12262B85222B7B017A6C
:1018010002791B8026E5242402FFE43523FAA90787
:101811007B01C003C00112264DF9740035F08B28FD
:10182100F529892A85222BD001D00312273C90006B
:1018310083E012261C900089F09000867406F080E7
:10184100221226176408701B12262BE522D3941549
:1018510040047F158002AF228F2B7B017A02793FF2
:1018610012273C900083E012263F74FFF090008322
:10187100E0F52204F0E0B40202E4F0900083E0FF1E
:10188100900082E0B50704A374FFF0900082E0B4F9
:08189100FF05E522F0C2A322CD
:1026D30075F021A42440F582E43400F583E58222D9
:1026E300EF75F021A4243EF582E43400F5832275CE
:1026F300F021A4243CF582E43400F583222FF582F3
:06270300E43583F583229A
:101E9500EBC394004006EBD3941D4002E4FB900095
:101EA5007FE0FC1226F2EFF0EC75F021A4243DF55D
:101EB50082E43400F583EDF090007EE0FF04F0A3AA
:101EC500E0FD75F021A4243FF582E43400F583EFAD
:101ED500F0ED1226D32B12270174FFF090007EE05F
:101EE500B4FF02E4F090007FE0FE04F0E0B40202EB
:101EF500E4F0900080E0FF90007FE0B5070374FFF9
:101F0500F0900080E0B4FF0FEEF0E01226F2E0F56D
:081F1500999000817401F02293
:10290200AD0790007FE0FFF4600B1226E3E4F0FBDA
:062912007FAB121E9522AE
:10279800AD0790007FE0FFF4601D75F032EDA424D2
:1027A8008AF582E5F03400F583E0FE1226E3EEF0C8
:0827B800E4FB7FAC121E952228
:1023EC00AD07E4F528F52990007FE0F460479000F4
:1023FC0089E0FFB40508752802752927800AEFB417
:10240C00060675280275291AE52945286027E4FF78
:10241C00852982852883A3E582122700E0FE90009F
:10242C007FE01226D3122700EEF00FBF0CE27B0CDC
:06243C007FAA121E95228A
:0300000002293999
:0C293900787FE4F6D8FD75813A02291879
:10226000BB010CE58229F582E5833AF583E0225033
:1022700006E92582F8E622BBFE06E92582F8E2227D
:0D228000E58229F582E5833AF583E4932297
:10228D00F8BB010DE58229F582E5833AF583E8F087
:10229D00225006E92582C8F622BBFE05E92582C833
:0222AD00F2221B
:1022AF00EF8DF0A4A8F0CF8CF0A428CE8DF0A42E43
:0222BF00FE22FD
:0622C1008A838982E473A8
:00000001FF
