:020000000150AD
:0600030000000000218056
:02000B00416250
:0600130000000000218046
:06001B000000000021803E
:02002300416E2C
:06002B000000000021802E
:0600330000000000218026
:06003B000000000021801E
:100050007581E031A231D5C294C29331BE501431C2
:10006000F1753E01D29320190C43E117C290D29052
:100070003008F12180C2ACC2977401C3953E40099B
:10008000E544B4B0EE053E8007E544B4B008017322
:100090005101D29701CDB4B10451012180B4B20411
:1000A000311580ECB4B306C21A313D01CDB4B406AB
:1000B000D21A313D01CDB4B51475430C7544B575F4
:1000C00045137546057547167548FF510C53E77F74
:1000D00031F1C28CC219752D007526FFD2AC0164B6
:1000E00078207A08B6690A740428F8DAF775E78088
:1000F00022218075E5023106F5E2C2AF75E646754C
:10010000E6B900D2AF228583E38582E42275E50358
:10011000310611FA2200000011E07A7C758300316B
:100120000D05830583DAF853E77F75259B2221802F
:1001300075E501310675E20011FAE5E22211E0856C
:100140004783854882A21A5002310DAA4A784B7E15
:10015000007F00E62FFFE43EFEE611F308A3DAF38A
:1001600053E77F75430A8E458F46510C22218053F9
:10017000E77F7523007525647526FF31D502005F82
:1001800011E07583EA7582003130B455E2A3313055
:10019000B455DC53E77F7420F520F528F525F5E705
:1001A00080FE75890175A88278207A0876697404C2
:1001B00028F8DAF87523007525647526FF22740582
:1001C00031F3A2B0921820080AA2B0301801B3503F
:1001D000F5D322C32275985074FFF5CBF5CD74B8D2
:1001E000F5CAF5CC75C834D2ACC201752D00D2AFBA
:1001F000227438C28CF529E4F58AF58CC208D28CB9
:1002000022C2AC7543087544B0510C22C2ACC28CFA
:1002100075405A7541A5754200AA431A1A1AE4F5A9
:1002200031F5327840E6514208DAFAAA32E5315126
:1002300042EA514274165142C219752D00D29CD225
:10024000AC22FF7450B4D008EFC29B30D002D29BD6
:10025000EFF5992532F532E43531F5313099FDC2AB
:100260009922C0D0D52904D208C28CD0D03210989F
:100270000132C0D0C0E0E599D2D3AB35AC36E52D24
:10028000948F50787440252DF8E599F6FF7450B49A
:10029000D00CEF20D005309A058061309A5EE408DA
:1002A000F618EF2536F536E43535F535052DE52D0F
:0102B000FD50
:1002B100C394035014DD0BB65A4B75365A7535008D
:1002C100803CDD37B6A53E8035E52D9403402FE512
:1002D10043C39403952D50268B358C36E54314C3C7
:1002E100952D501A743D252DF9E7B5350E09E7B561
:1002F100360909E7B41604D219C2AC752D0031F1E3
:0F030100D0E0D0D032752D00D526F3D20980EF91
:00000001FF
